:020000020000FC
:080000000C9434000C944D0037
:1000680008E00EBF0FEF0DBF52985A9A539A5B9A49
:10007800549A559A249A259A239A2C9A2D9A2B9A0F
:1000880001E00DBB02E00093690078940E945E00D5
:10009800FDCF0E947E0059B14C9906C04D9B02C00D
:1000A8002C9805C02D9803C02C982D982B980E9449
:1000B8007E00189547EE4093850046E940938400FA
:1000C80040E04093800044E040938100B09BFECF25
:1000D800442740938100B09A09B10873000F10E2D9
:1000E800110F011721F408E004600BB902C0046085
:1000F8000BB90895442740938100B09A4BE0409390
:1001080085004CED4093840040E04093800044E03B
:0A01180040938100B09BFECF0895D4
:00000001FF
